{
    "_format": "hh-sol-artifact-1",
    "contractName": "ERC20",
    "sourceName": "contracts/core/SudtERC20Proxy.sol",
    "abi": [
        {
            "inputs": [
                {
                    "internalType": "string",
                    "name": "name_",
                    "type": "string"
                },
                {
                    "internalType": "string",
                    "name": "symbol_",
                    "type": "string"
                },
                {
                    "internalType": "uint256",
                    "name": "totalSupply_",
                    "type": "uint256"
                },
                {
                    "internalType": "uint256",
                    "name": "sudtId_",
                    "type": "uint256"
                }
            ],
            "stateMutability": "nonpayable",
            "type": "constructor"
        },
        {
            "anonymous": false,
            "inputs": [
                {
                    "indexed": true,
                    "internalType": "address",
                    "name": "owner",
                    "type": "address"
                },
                {
                    "indexed": true,
                    "internalType": "address",
                    "name": "spender",
                    "type": "address"
                },
                {
                    "indexed": false,
                    "internalType": "uint256",
                    "name": "value",
                    "type": "uint256"
                }
            ],
            "name": "Approval",
            "type": "event"
        },
        {
            "anonymous": false,
            "inputs": [
                {
                    "indexed": true,
                    "internalType": "address",
                    "name": "from",
                    "type": "address"
                },
                {
                    "indexed": true,
                    "internalType": "address",
                    "name": "to",
                    "type": "address"
                },
                {
                    "indexed": false,
                    "internalType": "uint256",
                    "name": "value",
                    "type": "uint256"
                }
            ],
            "name": "Transfer",
            "type": "event"
        },
        {
            "inputs": [
                {
                    "internalType": "address",
                    "name": "owner",
                    "type": "address"
                },
                {
                    "internalType": "address",
                    "name": "spender",
                    "type": "address"
                }
            ],
            "name": "allowance",
            "outputs": [
                {
                    "internalType": "uint256",
                    "name": "",
                    "type": "uint256"
                }
            ],
            "stateMutability": "nonpayable",
            "type": "function"
        },
        {
            "inputs": [
                {
                    "internalType": "address",
                    "name": "spender",
                    "type": "address"
                },
                {
                    "internalType": "uint256",
                    "name": "amount",
                    "type": "uint256"
                }
            ],
            "name": "approve",
            "outputs": [
                {
                    "internalType": "bool",
                    "name": "",
                    "type": "bool"
                }
            ],
            "stateMutability": "nonpayable",
            "type": "function"
        },
        {
            "inputs": [
                {
                    "internalType": "address",
                    "name": "account",
                    "type": "address"
                }
            ],
            "name": "balanceOf",
            "outputs": [
                {
                    "internalType": "uint256",
                    "name": "",
                    "type": "uint256"
                }
            ],
            "stateMutability": "nonpayable",
            "type": "function"
        },
        {
            "inputs": [],
            "name": "decimals",
            "outputs": [
                {
                    "internalType": "uint8",
                    "name": "",
                    "type": "uint8"
                }
            ],
            "stateMutability": "view",
            "type": "function"
        },
        {
            "inputs": [
                {
                    "internalType": "address",
                    "name": "spender",
                    "type": "address"
                },
                {
                    "internalType": "uint256",
                    "name": "subtractedValue",
                    "type": "uint256"
                }
            ],
            "name": "decreaseAllowance",
            "outputs": [
                {
                    "internalType": "bool",
                    "name": "",
                    "type": "bool"
                }
            ],
            "stateMutability": "nonpayable",
            "type": "function"
        },
        {
            "inputs": [
                {
                    "internalType": "address",
                    "name": "spender",
                    "type": "address"
                },
                {
                    "internalType": "uint256",
                    "name": "addedValue",
                    "type": "uint256"
                }
            ],
            "name": "increaseAllowance",
            "outputs": [
                {
                    "internalType": "bool",
                    "name": "",
                    "type": "bool"
                }
            ],
            "stateMutability": "nonpayable",
            "type": "function"
        },
        {
            "inputs": [],
            "name": "name",
            "outputs": [
                {
                    "internalType": "string",
                    "name": "",
                    "type": "string"
                }
            ],
            "stateMutability": "view",
            "type": "function"
        },
        {
            "inputs": [],
            "name": "sudtId",
            "outputs": [
                {
                    "internalType": "uint256",
                    "name": "",
                    "type": "uint256"
                }
            ],
            "stateMutability": "view",
            "type": "function"
        },
        {
            "inputs": [],
            "name": "symbol",
            "outputs": [
                {
                    "internalType": "string",
                    "name": "",
                    "type": "string"
                }
            ],
            "stateMutability": "view",
            "type": "function"
        },
        {
            "inputs": [],
            "name": "totalSupply",
            "outputs": [
                {
                    "internalType": "uint256",
                    "name": "",
                    "type": "uint256"
                }
            ],
            "stateMutability": "view",
            "type": "function"
        },
        {
            "inputs": [
                {
                    "internalType": "address",
                    "name": "recipient",
                    "type": "address"
                },
                {
                    "internalType": "uint256",
                    "name": "amount",
                    "type": "uint256"
                }
            ],
            "name": "transfer",
            "outputs": [
                {
                    "internalType": "bool",
                    "name": "",
                    "type": "bool"
                }
            ],
            "stateMutability": "nonpayable",
            "type": "function"
        },
        {
            "inputs": [
                {
                    "internalType": "address",
                    "name": "sender",
                    "type": "address"
                },
                {
                    "internalType": "address",
                    "name": "recipient",
                    "type": "address"
                },
                {
                    "internalType": "uint256",
                    "name": "amount",
                    "type": "uint256"
                }
            ],
            "name": "transferFrom",
            "outputs": [
                {
                    "internalType": "bool",
                    "name": "",
                    "type": "bool"
                }
            ],
            "stateMutability": "nonpayable",
            "type": "function"
        }
    ],
    "bytecode": "0x60806040523480156200001157600080fd5b50604051620018df380380620018df8339818101604052810190620000379190620001ba565b83600390805190602001906200004f92919062000081565b5082600490805190602001906200006892919062000081565b50816001819055508060028190555050505050620003ec565b8280546200008f90620002f7565b90600052602060002090601f016020900481019282620000b35760008555620000ff565b82601f10620000ce57805160ff1916838001178555620000ff565b82800160010185558215620000ff579182015b82811115620000fe578251825591602001919060010190620000e1565b5b5090506200010e919062000112565b5090565b5b808211156200012d57600081600090555060010162000113565b5090565b600062000148620001428462000281565b62000258565b9050828152602081018484840111156200016157600080fd5b6200016e848285620002c1565b509392505050565b600082601f8301126200018857600080fd5b81516200019a84826020860162000131565b91505092915050565b600081519050620001b481620003d2565b92915050565b60008060008060808587031215620001d157600080fd5b600085015167ffffffffffffffff811115620001ec57600080fd5b620001fa8782880162000176565b945050602085015167ffffffffffffffff8111156200021857600080fd5b620002268782880162000176565b93505060406200023987828801620001a3565b92505060606200024c87828801620001a3565b91505092959194509250565b60006200026462000277565b90506200027282826200032d565b919050565b6000604051905090565b600067ffffffffffffffff8211156200029f576200029e62000392565b5b620002aa82620003c1565b9050602081019050919050565b6000819050919050565b60005b83811015620002e1578082015181840152602081019050620002c4565b83811115620002f1576000848401525b50505050565b600060028204905060018216806200031057607f821691505b6020821081141562000327576200032662000363565b5b50919050565b6200033882620003c1565b810181811067ffffffffffffffff821117156200035a576200035962000392565b5b80604052505050565b7f4e487b7100000000000000000000000000000000000000000000000000000000600052602260045260246000fd5b7f4e487b7100000000000000000000000000000000000000000000000000000000600052604160045260246000fd5b6000601f19601f8301169050919050565b620003dd81620002b7565b8114620003e957600080fd5b50565b6114e380620003fc6000396000f3fe608060405234801561001057600080fd5b50600436106100b45760003560e01c806370a082311161007157806370a08231146101a357806395d89b41146101d35780639f8dfb59146101f1578063a457c2d71461020f578063a9059cbb1461023f578063dd62ed3e1461026f576100b4565b806306fdde03146100b9578063095ea7b3146100d757806318160ddd1461010757806323b872dd14610125578063313ce567146101555780633950935114610173575b600080fd5b6100c161029f565b6040516100ce9190610fbe565b60405180910390f35b6100f160048036038101906100ec9190610e2f565b610331565b6040516100fe9190610fa3565b60405180910390f35b61010f61034f565b60405161011c91906110a0565b60405180910390f35b61013f600480360381019061013a9190610de0565b610359565b60405161014c9190610fa3565b60405180910390f35b61015d610459565b60405161016a91906110bb565b60405180910390f35b61018d60048036038101906101889190610e2f565b610462565b60405161019a9190610fa3565b60405180910390f35b6101bd60048036038101906101b89190610d7b565b61050d565b6040516101ca91906110a0565b60405180910390f35b6101db61061e565b6040516101e89190610fbe565b60405180910390f35b6101f96106b0565b60405161020691906110a0565b60405180910390f35b61022960048036038101906102249190610e2f565b6106ba565b6040516102369190610fa3565b60405180910390f35b61025960048036038101906102549190610e2f565b6107ad565b6040516102669190610fa3565b60405180910390f35b61028960048036038101906102849190610da4565b6107cb565b60405161029691906110a0565b60405180910390f35b6060600380546102ae90611204565b80601f01602080910402602001604051908101604052809291908181526020018280546102da90611204565b80156103275780601f106102fc57610100808354040283529160200191610327565b820191906000526020600020905b81548152906001019060200180831161030a57829003601f168201915b5050505050905090565b600061034561033e610851565b8484610859565b6001905092915050565b6000600154905090565b6000610366848484610a23565b60008060008673ffffffffffffffffffffffffffffffffffffffff1673ffffffffffffffffffffffffffffffffffffffff16815260200190815260200160002060006103b0610851565b73ffffffffffffffffffffffffffffffffffffffff1673ffffffffffffffffffffffffffffffffffffffff16815260200190815260200160002054905082811015610430576040517f08c379a000000000000000000000000000000000000000000000000000000000815260040161042790611020565b60405180910390fd5b61044d8561043c610851565b85846104489190611148565b610859565b60019150509392505050565b60006012905090565b600061050361046f610851565b848460008061047c610851565b73ffffffffffffffffffffffffffffffffffffffff1673ffffffffffffffffffffffffffffffffffffffff16815260200190815260200160002060008873ffffffffffffffffffffffffffffffffffffffff1673ffffffffffffffffffffffffffffffffffffffff168152602001908152602001600020546104fe91906110f2565b610859565b6001905092915050565b6000610517610ceb565b60025481600060028110610554577f4e487b7100000000000000000000000000000000000000000000000000000000600052603260045260246000fd5b6020020181815250508273ffffffffffffffffffffffffffffffffffffffff16816001600281106105ae577f4e487b7100000000000000000000000000000000000000000000000000000000600052603260045260246000fd5b6020020181815250506105bf610d0d565b602081604084600060f0600019f16105d657600080fd5b80600060018110610610577f4e487b7100000000000000000000000000000000000000000000000000000000600052603260045260246000fd5b602002015192505050919050565b60606004805461062d90611204565b80601f016020809104026020016040519081016040528092919081815260200182805461065990611204565b80156106a65780601f1061067b576101008083540402835291602001916106a6565b820191906000526020600020905b81548152906001019060200180831161068957829003601f168201915b5050505050905090565b6000600254905090565b6000806000806106c8610851565b73ffffffffffffffffffffffffffffffffffffffff1673ffffffffffffffffffffffffffffffffffffffff16815260200190815260200160002060008573ffffffffffffffffffffffffffffffffffffffff1673ffffffffffffffffffffffffffffffffffffffff16815260200190815260200160002054905082811015610785576040517f08c379a000000000000000000000000000000000000000000000000000000000815260040161077c90611080565b60405180910390fd5b6107a2610790610851565b85858461079d9190611148565b610859565b600191505092915050565b60006107c16107ba610851565b8484610a23565b6001905092915050565b60008060008473ffffffffffffffffffffffffffffffffffffffff1673ffffffffffffffffffffffffffffffffffffffff16815260200190815260200160002060008373ffffffffffffffffffffffffffffffffffffffff1673ffffffffffffffffffffffffffffffffffffffff16815260200190815260200160002054905092915050565b600033905090565b600073ffffffffffffffffffffffffffffffffffffffff168373ffffffffffffffffffffffffffffffffffffffff1614156108c9576040517f08c379a00000000000000000000000000000000000000000000000000000000081526004016108c090611060565b60405180910390fd5b600073ffffffffffffffffffffffffffffffffffffffff168273ffffffffffffffffffffffffffffffffffffffff161415610939576040517f08c379a000000000000000000000000000000000000000000000000000000000815260040161093090611000565b60405180910390fd5b806000808573ffffffffffffffffffffffffffffffffffffffff1673ffffffffffffffffffffffffffffffffffffffff16815260200190815260200160002060008473ffffffffffffffffffffffffffffffffffffffff1673ffffffffffffffffffffffffffffffffffffffff168152602001908152602001600020819055508173ffffffffffffffffffffffffffffffffffffffff168373ffffffffffffffffffffffffffffffffffffffff167f8c5be1e5ebec7d5bd14f71427d1e84f3dd0314c0f7b2291e5b200ac8c7c3b92583604051610a1691906110a0565b60405180910390a3505050565b600073ffffffffffffffffffffffffffffffffffffffff168373ffffffffffffffffffffffffffffffffffffffff161415610a93576040517f08c379a0000000000000000000000000000000000000000000000000000000008152600401610a8a90611040565b60405180910390fd5b600073ffffffffffffffffffffffffffffffffffffffff168273ffffffffffffffffffffffffffffffffffffffff161415610b03576040517f08c379a0000000000000000000000000000000000000000000000000000000008152600401610afa90610fe0565b60405180910390fd5b610b15610b0e610851565b8383610ce6565b610b1d610d2f565b60025481600060048110610b5a577f4e487b7100000000000000000000000000000000000000000000000000000000600052603260045260246000fd5b6020020181815250508373ffffffffffffffffffffffffffffffffffffffff1681600160048110610bb4577f4e487b7100000000000000000000000000000000000000000000000000000000600052603260045260246000fd5b6020020181815250508273ffffffffffffffffffffffffffffffffffffffff1681600260048110610c0e577f4e487b7100000000000000000000000000000000000000000000000000000000600052603260045260246000fd5b6020020181815250508181600360048110610c52577f4e487b7100000000000000000000000000000000000000000000000000000000600052603260045260246000fd5b602002018181525050610c63610d0d565b602081608084600060f1600019f1610c7a57600080fd5b8373ffffffffffffffffffffffffffffffffffffffff168573ffffffffffffffffffffffffffffffffffffffff167fddf252ad1be2c89b69c2b068fc378daa952ba7f163c4a11628f55a4df523b3ef85604051610cd791906110a0565b60405180910390a35050505050565b505050565b6040518060400160405280600290602082028036833780820191505090505090565b6040518060200160405280600190602082028036833780820191505090505090565b6040518060800160405280600490602082028036833780820191505090505090565b600081359050610d608161147f565b92915050565b600081359050610d7581611496565b92915050565b600060208284031215610d8d57600080fd5b6000610d9b84828501610d51565b91505092915050565b60008060408385031215610db757600080fd5b6000610dc585828601610d51565b9250506020610dd685828601610d51565b9150509250929050565b600080600060608486031215610df557600080fd5b6000610e0386828701610d51565b9350506020610e1486828701610d51565b9250506040610e2586828701610d66565b9150509250925092565b60008060408385031215610e4257600080fd5b6000610e5085828601610d51565b9250506020610e6185828601610d66565b9150509250929050565b610e748161118e565b82525050565b6000610e85826110d6565b610e8f81856110e1565b9350610e9f8185602086016111d1565b610ea881611294565b840191505092915050565b6000610ec06023836110e1565b9150610ecb826112a5565b604082019050919050565b6000610ee36022836110e1565b9150610eee826112f4565b604082019050919050565b6000610f066028836110e1565b9150610f1182611343565b604082019050919050565b6000610f296025836110e1565b9150610f3482611392565b604082019050919050565b6000610f4c6024836110e1565b9150610f57826113e1565b604082019050919050565b6000610f6f6025836110e1565b9150610f7a82611430565b604082019050919050565b610f8e816111ba565b82525050565b610f9d816111c4565b82525050565b6000602082019050610fb86000830184610e6b565b92915050565b60006020820190508181036000830152610fd88184610e7a565b905092915050565b60006020820190508181036000830152610ff981610eb3565b9050919050565b6000602082019050818103600083015261101981610ed6565b9050919050565b6000602082019050818103600083015261103981610ef9565b9050919050565b6000602082019050818103600083015261105981610f1c565b9050919050565b6000602082019050818103600083015261107981610f3f565b9050919050565b6000602082019050818103600083015261109981610f62565b9050919050565b60006020820190506110b56000830184610f85565b92915050565b60006020820190506110d06000830184610f94565b92915050565b600081519050919050565b600082825260208201905092915050565b60006110fd826111ba565b9150611108836111ba565b9250827fffffffffffffffffffffffffffffffffffffffffffffffffffffffffffffffff0382111561113d5761113c611236565b5b828201905092915050565b6000611153826111ba565b915061115e836111ba565b92508282101561117157611170611236565b5b828203905092915050565b60006111878261119a565b9050919050565b60008115159050919050565b600073ffffffffffffffffffffffffffffffffffffffff82169050919050565b6000819050919050565b600060ff82169050919050565b60005b838110156111ef5780820151818401526020810190506111d4565b838111156111fe576000848401525b50505050565b6000600282049050600182168061121c57607f821691505b602082108114156112305761122f611265565b5b50919050565b7f4e487b7100000000000000000000000000000000000000000000000000000000600052601160045260246000fd5b7f4e487b7100000000000000000000000000000000000000000000000000000000600052602260045260246000fd5b6000601f19601f8301169050919050565b7f45524332303a207472616e7366657220746f20746865207a65726f206164647260008201527f6573730000000000000000000000000000000000000000000000000000000000602082015250565b7f45524332303a20617070726f766520746f20746865207a65726f20616464726560008201527f7373000000000000000000000000000000000000000000000000000000000000602082015250565b7f45524332303a207472616e7366657220616d6f756e742065786365656473206160008201527f6c6c6f77616e6365000000000000000000000000000000000000000000000000602082015250565b7f45524332303a207472616e736665722066726f6d20746865207a65726f20616460008201527f6472657373000000000000000000000000000000000000000000000000000000602082015250565b7f45524332303a20617070726f76652066726f6d20746865207a65726f2061646460008201527f7265737300000000000000000000000000000000000000000000000000000000602082015250565b7f45524332303a2064656372656173656420616c6c6f77616e63652062656c6f7760008201527f207a65726f000000000000000000000000000000000000000000000000000000602082015250565b6114888161117c565b811461149357600080fd5b50565b61149f816111ba565b81146114aa57600080fd5b5056fea2646970667358221220117204e5787eaa09aab2f2ae676406e9cf65b02550fef74705d856aedd59896c64736f6c63430008020033",
    "linkReferences": {},
    "deployedLinkReferences": {}
}