{
    "contractName": "SimpleStorage",
    "abi": [
        {
            "inputs": [],
            "stateMutability": "payable",
            "type": "constructor"
        },
        {
            "inputs": [
                {
                    "internalType": "uint256",
                    "name": "x",
                    "type": "uint256"
                }
            ],
            "name": "vote",
            "outputs": [],
            "stateMutability": "payable",
            "type": "function"
        },
        {
            "inputs": [],
            "name": "totalnumberofVotes",
            "outputs": [
                {
                    "internalType": "uint256",
                    "name": "",
                    "type": "uint256"
                }
            ],
            "stateMutability": "view",
            "type": "function"
        }
    ],
    "bytecode": "0x6080604052607b60008190555061012f8061001b6000396000f3fe60806040526004361060265760003560e01c80630121b93f14602b57806374785fa1146043575b600080fd5b60416004803603810190603d9190608f565b6069565b005b348015604e57600080fd5b5060556073565b6040516060919060c2565b60405180910390f35b8060008190555050565b60008054905090565b60008135905060898160e5565b92915050565b60006020828403121560a057600080fd5b600060ac84828501607c565b91505092915050565b60bc8160db565b82525050565b600060208201905060d5600083018460b5565b92915050565b6000819050919050565b60ec8160db565b811460f657600080fd5b5056fea2646970667358221220df0d12b39e3e7ab7c3668a098a892c5f371fd007ffb066bdc2918c2b2a73a31364736f6c63430008030033",
    "immutableReferences": {},
    "source": "pragma solidity >=0.8.0;\r\n\r\ncontract SimpleStorage {\r\n  uint votes;\r\n\r\n  constructor() payable {\r\n    votes = 123;\r\n  }\r\n\r\n  function vote(uint x) public payable {\r\n    votes = x;\r\n  }\r\n\r\n  function totalnumberofVotes() public view returns (uint) {\r\n    return votes;\r\n  }\r\n}",
    "sourcePath": "C:/test repo/NervousHackathon/Gitcoin7/repoGit7/contracts/SimpleStorage.sol",
    "compiler": {
        "name": "solc",
        "version": "0.8.3+commit.8d00100c.Linux.g++"
    },
    "schemaVersion": "3.3.4",
    "updatedAt": "2021-08-08T07:04:49.877Z",
    "devdoc": {
        "kind": "dev",
        "methods": {},
        "version": 1
    },
    "userdoc": {
        "kind": "user",
        "methods": {},
        "version": 1
    }
}